:100000000C945D000C947A000C947A000C947A00A5
:100010000C947A000C947A000C947A000C947A0078
:100020000C947A000C947A000C947A000C947A0068
:100030000C947A000C947A000C947A000C947A0058
:100040000C94E7000C947A000C947A000C947A00DB
:100050000C947A000C947A000C947A000C947A0038
:100060000C947A000C947A00000000080002010051
:100070000003040700000000000000000000000072
:10008000250028002B0000000000240027002A0083
:10009000040404040404040402020202020203032E
:1000A0000303030301020408102040800102040836
:1000B00010200102040810208D0111241FBECFEF73
:1000C000D8E0DEBFCDBF21E0A0E0B1E001C01D92CD
:1000D000AF30B207E1F710E0CDE5D0E004C02197E2
:1000E000FE010E949801CC35D107C9F70E94310169
:1000F0000C949E010C94000090E0FC01EC55FF4F25
:10010000249180579F4FFC018491882399F090E0BF
:10011000880F991FFC01EA57FF4FA591B491FC018C
:10012000E458FF4F859194918FB7F894EC91E22BAE
:10013000EC938FBF089590E0FC01E859FF4F2491A4
:10014000FC01EC55FF4F3491FC01E057FF4FE49167
:10015000EE23C9F0222339F0233001F1A8F4213035
:1001600019F1223029F1F0E0EE0FFF1FE458FF4FA4
:10017000A591B4918FB7F894EC91611126C0309598
:100180003E233C938FBF08952730A9F02830C9F053
:10019000243049F7809180008F7D03C080918000DA
:1001A0008F7780938000DFCF84B58F7784BDDBCFDE
:1001B00084B58F7DFBCF8091B0008F778093B000A6
:1001C000D2CF8091B0008F7DF9CF3E2BDACF1F9236
:1001D0000F920FB60F9211242F933F938F939F93FB
:1001E000AF93BF9380910B0190910C01A0910D01F1
:1001F000B0910E0130910A0123E0230F2D3758F5FD
:100200000196A11DB11D20930A0180930B019093CB
:100210000C01A0930D01B0930E0180910601909105
:100220000701A0910801B09109010196A11DB11D1E
:100230008093060190930701A0930801B0930901F0
:10024000BF91AF919F918F913F912F910F900FBED2
:100250000F901F90189526E8230F0296A11DB11D3F
:10026000D2CF789484B5826084BD84B5816084BD2A
:1002700085B5826085BD85B5816085BD80916E0044
:10028000816080936E001092810080918100826075
:1002900080938100809181008160809381008091B2
:1002A00080008160809380008091B10084608093A1
:1002B000B1008091B00081608093B00080917A009D
:1002C000846080937A0080917A00826080937A00C3
:1002D00080917A00816080937A0080917A008068B2
:1002E00080937A001092C100809100010E947C00EE
:1002F000809102010E947C00C0E0D0E060E080912B
:1003000002010E949B0061E0809100010E949B001D
:100310002097A1F30E940000F1CFE0E0F1E08FEF21
:100320009FEF958384838DE090E09183808308958F
:10033000EE0FFF1F0590F491E02D0994F894FFCF84
:00000001FF
