:100000000C9458000C9480000C9480000C94800098
:100010000C9480000C9480000C9480000C94800060
:100020000C9480000C9480000C9480000C94800050
:100030000C9480000C9480000C9480000C94800040
:100040000C9496080C9480000C9464080C943E0860
:100050000C9480000C9480000C9480000C94800020
:100060000C94E0080C94800000000000250028009B
:100070002B00040404040404040402020202020229
:10008000030303030303010204081020408001025C
:1000900004081020010204081020000000080002DB
:1000A0000100000304070000000000000000FF0939
:1000B00011241FBECFEFD8E0DEBFCDBF11E0A0E01E
:1000C000B1E0EAE2F2E202C005900D92A438B10775
:1000D000D9F723E0A4E8B1E001C01D92A237B2072E
:1000E000E1F710E0C8E5D0E004C02197FE010E94CE
:1000F0000D11C735D107C9F70E94520A0C9413118C
:100100000C9400008091250290912602891B990B86
:10011000089508950895AF92BF92CF92DF92EF9223
:10012000FF920F931F93CF93DF936C017B018B01A1
:10013000040F151FEB015E01AE18BF08C017D107F1
:1001400059F06991D601ED91FC910190F081E02D7B
:10015000C6010995892B79F7C501DF91CF911F91D0
:100160000F91FF90EF90DF90CF90BF90AF900895E8
:10017000FC01538D448D252F30E0842F90E0821BAD
:10018000930B541710F0CF96089501970895FC0132
:10019000918D828D981761F0A28DAE0FBF2FB11D8A
:1001A0005D968C91928D9F5F9F73928F90E00895E2
:1001B0008FEF9FEF0895FC01918D828D981731F09C
:1001C000828DE80FF11D858D90E008958FEF9FEFF0
:1001D0000895FC01918D228D892F90E0805C9F4FC6
:1001E000821B91098F739927089587E492E00E94FA
:1001F000E90021E0892B09F420E0822F089580E0B6
:1002000090E0892B29F00E94F50081110C940000E8
:100210000895FC01A48DA80FB92FB11DA35ABF4F9B
:100220002C91848D90E001968F739927848FA689F5
:10023000B7892C93A089B1898C91837080648C9349
:10024000938D848D981306C00288F389E02D8081F8
:100250008F7D80830895EF92FF920F931F93CF932A
:10026000DF93EC0181E0888F9B8D8C8D98131AC0F1
:10027000E889F989808185FF15C09FB7F894EE89D8
:10028000FF896083E889F989808183708064808335
:100290009FBF81E090E0DF91CF911F910F91FF9080
:1002A000EF900895F62E0B8D10E00F5F1F4F0F7328
:1002B0001127E02E8C8D8E110CC00FB607FCFACFE3
:1002C000E889F989808185FFF5CFCE010E94090177
:1002D000F1CFEB8DEC0FFD2FF11DE35AFF4FF082B4
:1002E0009FB7F8940B8FEA89FB8980818062CFCF1A
:1002F000CF93DF93EC01888D8823B9F0AA89BB895D
:10030000E889F9898C9185FD03C0808186FD0DC047
:100310000FB607FCF7CF8C9185FFF2CF808185FF68
:10032000EDCFCE010E940901E9CFDF91CF91089571
:1003300090E0FC01E656FF4F2491FC01EA57FF4F85
:100340003491FC01EE58FF4FE491EE23C9F02223D3
:1003500039F0233001F1A8F4213019F1223029F1CC
:10036000F0E0EE0FFF1FE859FF4FA591B4918FB752
:10037000F894EC91611126C030953E233C938FBFD9
:1003800008952730A9F02830C9F0243049F780912A
:1003900080008F7D03C0809180008F7780938000E4
:1003A000DFCF84B58F7784BDDBCF84B58F7DFBCF66
:1003B0008091B0008F778093B000D2CF8091B00051
:1003C0008F7DF9CF3E2BDACF3FB7F8948091CD01E6
:1003D0009091CE01A091CF01B091D00126B5A89BFC
:1003E00005C02F3F19F00196A11DB11D3FBFBA2FC7
:1003F000A92F982F8827BC01CD01620F711D811D87
:10040000911D42E0660F771F881F991F4A95D1F70B
:1004100008958F929F92AF92BF92CF92DF92EF9208
:10042000FF926B017C010E94E4014B015C01C1144D
:10043000D104E104F104B9F00E94E40168197909DA
:100440008A099B09683E73408105910580F321E08C
:10045000C21AD108E108F10888EE880E83E0981EE0
:10046000A11CB11CE4CFFF90EF90DF90CF90BF9024
:10047000AF909F908F9008952091A501260F33276C
:10048000331F21323105ECF420911F02FC0190E072
:1004900080E0243069F082E00895A091A5012191C7
:1004A000AC014B575E4FA40FB52FB11D2C93019695
:1004B000861798F38091A501680F6093A50180E0ED
:1004C000089581E0089510921F0281E080931E023A
:1004D0001092190261E082E10E94980161E083E1DB
:1004E0000E949801E9EBF0E080818E7F808380811B
:1004F0008D7F808388E48093B80085E48093BC007E
:100500000895CF93DF9391E0909384018823B9F00D
:10051000C091B800D091BA008091BC008A7B8093D2
:10052000BC0060E082E10E94980160E083E10E94EB
:1005300098010E946302D093BA00C093B800DF9183
:10054000CF910895CF92DF92EF92FF920F931F9376
:10055000CF93DF93D091F80181E0D13208F09CC0B5
:10056000C091F7010E94E4016B017C0180911F02A0
:1005700081116CC082E080931F0281E080931E0293
:100580008FEF80931D0210921C02D0931B02A7EDE7
:10059000B1E0E9EFF1E080E0D8138DC010921A02CB
:1005A00080911A02CC0FC82BC0931A0280911902B5
:1005B000813009F084C0109219020E94E4016B019D
:1005C0007C0180911A028093BB008091210290915E
:1005D0002202A0912302B0912402892B8A2B8B2B1B
:1005E000A1F00E94E40100912102109122022091C9
:1005F0002302309124026C197D098E099F09061788
:1006000017072807390708F442C08091BC0083FD12
:10061000D8CF85EC8093BC000E94E4016B017C0183
:1006200080911F02823009F44CC080911D028F3FDF
:1006300009F469C080911D02803209F466C080917E
:100640001D02803309F463C084E026C0809121023A
:1006500090912202A0912302B0912402892B8A2B2F
:100660008B2B09F483CF0E94E401009121021091A9
:10067000220220912302309124026C197D098E09F7
:100680009F09061717072807390708F06FCF8091D1
:1006900020020E94810285E01092D6011092F8019A
:1006A0001092D501DF91CF911F910F91FF90EF90A4
:1006B000DF90CF9008959D9191938F5F6DCF85EEE0
:1006C000A9CF8091210290912202A0912302B091A2
:1006D0002402892B8A2B8B2B09F4A2CF0E94E401E0
:1006E00000912102109122022091230230912402D4
:1006F0006C197D098E099F09061717072807390706
:1007000008F08ECFC4CF80E0C7CF82E0C5CF83E0B2
:10071000C3CF0895E091260280912502E81730F4B6
:10072000F0E0E95DFD4F808190E008958FEF9FEF4D
:10073000089590912602809125022FEF3FEF9817A0
:1007400048F4E92FF0E0E95DFD4F208130E09F5F44
:1007500090932602C9010895CF92DF92EF92FF9203
:100760000F931F93CF93DF937C01CB018A012091DC
:10077000D501222389F0EB016B01C40ED51ECC15E7
:10078000DD0569F06991D701ED91FC910190F0814F
:10079000E02DC7010995F3CF642F0E943C02C801E8
:1007A000DF91CF911F910F91FF90EF90DF90CF904D
:1007B0000895CF93DF931F92CDB7DEB76983209161
:1007C000D5012223F9F02091F801203258F021E0E0
:1007D00030E0FC013383228390E080E00F90DF91D2
:1007E000CF9108958091D601E82FF0E0E952FE4FB5
:1007F000998190838F5F8093D6018093F80181E087
:1008000090E0ECCF61E0CE0101960E943C02F7CF70
:10081000CF93C62F9091700321E02093D501909340
:10082000F7011092D6011092F801682F84EE92E041
:100830000E94D9036C2F84EE92E00E94D903CF91DD
:100840000C94A20290E080E008958F929F92AF9264
:10085000BF92CF92DF92EF92FF921F93CF93DF93DD
:10086000D82F162F0E94E4016B017C0180911F029A
:10087000811166C0C12F81E080931F0280931E0208
:100880009FEF90931D0210921C02910F90931B02F8
:1008900080931A0280911A02DD0FD82BD0931A028E
:1008A00080911902813009F082C0109219020E94D1
:1008B000E4016B017C0180911A028093BB0080915E
:1008C000210290912202A0912302B0912402892B4F
:1008D0008A2B8B2BA1F00E94E40180902102909042
:1008E0002202A0902302B09024026C197D098E0987
:1008F0009F0986169706A806B90608F442C080919B
:10090000BC0083FDD8CF85EC8093BC000E94E4013D
:100910006B017C0180911F02813009F44AC08091F3
:100920001C02811710F4C0911C02A9EFB1E0E7E2AC
:10093000F2E080E08C1751F19D9191938F5FFACF97
:100940008091210290912202A0912302B091240271
:10095000892B8A2B8B2B09F489CF0E94E40180908C
:10096000210290902202A0902302B09024026C19E0
:100970007D098E099F0986169706A806B90608F014
:1009800075CF809120020E948102C0E01092260261
:10099000C09325028C2FDF91CF911F91FF90EF9094
:1009A000DF90CF90BF90AF909F908F90089585EE8D
:1009B000ABCF8091210290912202A0912302B091AD
:1009C0002402892B8A2B8B2B09F4A4CF0E94E401EB
:1009D0008090210290902202A0902302B0902402E5
:1009E0006C197D098E099F0986169706A806B90617
:1009F00008F090CFC6CFCF9390917003C1E0C09321
:100A0000D5019093F7011092D6011092F801682F4A
:100A100084EE92E00E94D9030E94A20280917003AA
:100A200090917103C093D5018093F7011092D60184
:100A30001092F80161E070E00E9425049091250277
:100A4000809126029817F1F384EE92E00E949903B8
:100A5000C82F0E94A2028C2FCF910895AF92BF920F
:100A6000CF92DF92EF92FF920F931F93CF93DF937A
:100A70008C01EB017B018CE6E80EF11CF701808113
:100A8000DD24D394D092D5018093F7011092D60142
:100A90001092F80163E484EE92E00E94D9030E9470
:100AA000A202F70180819181D092D5018093F70154
:100AB0001092D6011092F80166E070E00E942504C1
:100AC0008091250290912602891B990B8630910511
:100AD000ECF384EE92E00E949903A82E84EE92E05B
:100AE0000E949903B82E84EE92E00E949903C82ECA
:100AF00084EE92E00E949903D82E84EE92E00E9448
:100B00009903E82E84EE92E00E949903F82E60E0AB
:100B10007A2D6B29072E000C880B990B0E94690F08
:100B20006C877D878E879F8760E07C2D6D29072EDF
:100B3000000C880B990B0E94690F688B798B8A8B4C
:100B40009B8B60E07E2D6F29072E000C880B990B84
:100B50000E94690F6C8B7D8B8E8B9F8B8CE0FE01CE
:100B60003C96D80101900D928A95E1F7C801DF917A
:100B7000CF911F910F91FF90EF90DF90CF90BF909A
:100B8000AF900895FC0101900020E9F73197AF0183
:100B9000481B590BBC0187E492E00C948B008F92A8
:100BA0009F92AF92BF920F931F93CF93DF93CDB7D6
:100BB000DEB7A1970FB6F894DEBF0FBECDBF19A266
:100BC000423008F44AE08E010F5D1F4F842E912CB5
:100BD000B12CA12CA50194010E94EB10E62FB901C4
:100BE000CA01EA30F4F4E05DD801EE938D01232BC5
:100BF000242B252B79F790E080E0109719F0CD0198
:100C00000E94C205A1960FB6F894DEBF0FBECDBFFD
:100C1000DF91CF911F910F91BF90AF909F908F90D8
:100C20000895E95CE1CFCF93DF930E94C205EC0108
:100C300084E291E00E94C2058C0F9D1FDF91CF914D
:100C400008952F923F924F925F926F927F928F9270
:100C50009F92AF92BF92CF92DF92EF92FF920F934B
:100C60001F93CF93DF93CDB7DEB7A4970FB6F89459
:100C7000DEBF0FBECDBF8C01FC01E559FF4F81E007
:100C8000808382E3382E19A21AA21BA21CA21D8EF9
:100C90001E8E1F8E18A2198E1A8E1B8E1C8EC12CB2
:100CA000D12C76014601570126013701B801CE014A
:100CB00001960E942E05D8011C968D919D910D9054
:100CC000BC91A02D8D879E87AF87B88B9C01AD010D
:100CD000C301B2010E94550E2B013C01D801509670
:100CE0008D919D910D90BC91A02D898B9A8BAB8B92
:100CF000BC8B9C01AD01C501B4010E94550E4B0196
:100D00005C01D80154968D919D910D90BC91A02DC0
:100D10008D8B9E8BAF8BB88F9C01AD01C701B60147
:100D20000E94550E6B017C012D853E854F855889AB
:100D3000CA01B9010E941E109B01AC01698D7A8D18
:100D40008B8D9C8D0E94550E698F7A8F8B8F9C8F17
:100D500029893A894B895C89CA01B9010E941E1010
:100D60009B01AC016D8D7E8D8F8D98A10E94550EDB
:100D70006D8F7E8F8F8F98A32D893E894F89588DD7
:100D8000CA01B9010E941E109B01AC0169A17AA1A0
:100D90008BA19CA10E94550E69A37AA38BA39CA34F
:100DA00065E070E080E090E00E9409023A94311022
:100DB0007DCF20E030E048E452E4C301B2010E945C
:100DC000C60E2B013C01F80144AE55AE66AE77AEBF
:100DD00020E030E048E452E4C501B4010E94C60EB0
:100DE0004B015C01F801E05CFF4F80829182A2829E
:100DF000B38220E030E048E452E4C701B6010E942B
:100E0000C60E6B017C01F801EC5BFF4FC082D18202
:100E1000E282F38220E030E048E452E4698D7A8D8A
:100E20008B8D9C8D0E94C60E6D877E878F87988BD9
:100E3000A3019201C301B2010E941E109B01AC01EB
:100E40006D857E858F8598890E94540E0E94911031
:100E50003801F8E46F0E711CD3016D937D938D936F
:100E60009C93139720E030E048E452E46D8D7E8D32
:100E70008F8D98A10E94C60E1B012C01A501940123
:100E8000C501B4010E941E109B01AC01C201B10159
:100E90000E94540E0E9491105801BCE4AB0EB11C8C
:100EA000F501608371838283938320E030E048E41E
:100EB00052E469A17AA18BA19CA10E94C60E1B01DC
:100EC0002C01A7019601C701B6010E941E109B01CB
:100ED000AC01C201B1010E94540E0E949110480160
:100EE000F0E58F0E911CD4016D937D938D939C93AF
:100EF00013977801B7E6EB0EF11CF70120803180E3
:100F00004280538020E030E0A901C201B1010E947B
:100F1000191018160CF04EC0C201B1010E94380F12
:100F2000D62E662309F45FC0F801E559FF4F808192
:100F3000811103C0C8010E9421066D2D70E090E070
:100F400080E00E94690F1B012C01AC019B01D301C1
:100F50006D917D918D919C910E941E10F80160AB66
:100F600071AB82AB93ABA2019101D5016D917D91E3
:100F70008D919C910E941E10F80164AB75AB86ABFD
:100F800097ABA2019101D4016D917D918D919C91BE
:100F90000E941E10F80160AF71AF82AF93AF6D2D4C
:100FA00070E090E080E00E94670FF701608371833A
:100FB00082839383A4960FB6F894DEBF0FBECDBF95
:100FC000DF91CF911F910F91FF90EF90DF90CF9025
:100FD000BF90AF909F908F907F906F905F904F9059
:100FE0003F902F900895D801D0961D921D921D928A
:100FF0001C92D397F80114AA15AA16AA17AAD89674
:101000001D921D921D921C92DB97C9CF85ED809396
:10101000BC008091210290912202A0912302B09104
:1010200024020796A11DB11D23E0B695A7959795BB
:1010300087952A95D1F72091BC0024FD03C010921A
:101040001F020895409121025091220260912302D3
:1010500070912402452B462B472B69F30097A1057D
:10106000B10541F025E32A95F1F700000197A109A8
:10107000B109E1CF809120020C9481021F920F925E
:101080000FB60F9211242F933F934F935F936F935B
:101090007F938F939F93AF93BF93EF93FF9387E4D7
:1010A00092E00E940901FF91EF91BF91AF919F9152
:1010B0008F917F916F915F914F913F912F910F9001
:1010C0000FBE0F901F9018951F920F920FB60F92A0
:1010D00011242F938F939F93EF93FF93E0915702E7
:1010E000F09158028081E0915D02F0915E0282FDF4
:1010F0001BC09081809160028F5F8F73209161028D
:10110000821741F0E0916002F0E0E95BFD4F958FBE
:1011100080936002FF91EF919F918F912F910F909B
:101120000FBE0F901F9018958081F4CF1F920F92E1
:101130000FB60F9211242F933F938F939F93AF93EA
:10114000BF938091C9019091CA01A091CB01B09148
:10115000CC013091C80123E0230F2D3758F50196BB
:10116000A11DB11D2093C8018093C9019093CA01AC
:10117000A093CB01B093CC018091CD019091CE0191
:10118000A091CF01B091D0010196A11DB11D809316
:10119000CD019093CE01A093CF01B093D001BF9128
:1011A000AF919F918F913F912F910F900FBE0F9014
:1011B0001F90189526E8230F0296A11DB11DD2CFCE
:1011C0001F920F920FB60F9211242F933F934F93BC
:1011D0005F936F937F938F939F93AF93BF93EF939F
:1011E000FF938091B900887F803609F44AC0F0F5FA
:1011F000883209F4A7C018F5803109F49BC0B8F40F
:10120000882309F4F9C0883009F494C0FF91EF9164
:10121000BF91AF919F918F917F916F915F914F910E
:101220003F912F910F900FBE0F901F90189588310E
:1012300009F488C0803251F780931D0214C08034B5
:1012400009F49DC040F48033B9F38833F9F68093F4
:101250001D0285ECB0C0803509F485C0883509F4DD
:1012600096C0883499F60E940608D0CF883909F4D0
:101270008CC038F5883729F050F4883611F0803763
:1012800029F683E080931F021092C70157C0883867
:1012900009F47BC0803919F0803809F0B7CF80910C
:1012A000C701803208F071C0E091C70181E08E0F64
:1012B0008093C7018091BB00F0E0E955FE4F808329
:1012C0003DC0803B39F0E0F4803A09F479C0883AB7
:1012D00009F09CCF84E080931F021092A601109227
:1012E000A501E091D301F091D40109958091A50168
:1012F00081110FC081E08093A5011092850109C082
:10130000803C09F4A6CF883C09F4A3CF883B09F0C0
:101310007DCFE091A60181E08E0F8093A601F0E0E1
:10132000EB57FE4F80818093BB009091A601809186
:10133000A50129C080911A028093BB0085EC80939F
:10134000BC0064CF90911C0280911B02981758F545
:10135000E0911C0281E08E0F80931C02F0E0E750C8
:10136000FE4F8081E9CFE0911C0281E08E0F8093D7
:101370001C028091BB00F0E0E750FE4F808390910B
:101380001C0280911B029817C8F285E8D8CFE09123
:101390001C0281E08E0F80931C028091BB00F0E064
:1013A000E750FE4F808380911E0281115CCF81E067
:1013B0008093190284EA8093BC0010921F0226CF0A
:1013C00085EC8093BC0010921F028091C70180328F
:1013D00030F4E091C701F0E0E955FE4F10826091D2
:1013E000C70170E0E091D101F091D20187EA91E06C
:1013F00009951092C7010ACF10921D0234CFE7E47D
:10140000F2E01382128288EE93E0A0E0B0E08483E1
:101410009583A683B78324E031E03183208325ECD4
:1014200030E03587248724EC30E03787268720ECAE
:1014300030E0318B208B21EC30E0338B228B22EC9F
:1014400030E0358B248B26EC30E0378B268B118EE9
:10145000128E138E148EE4EEF2E0138212828483D5
:101460009583A683B78386E191E091838083E0EF43
:10147000F2E0108211821282138214821582168287
:101480001782108611861286138614861586168694
:1014900017868FE692E1A3E8BAE3808B918BA28B4B
:1014A000B38B0895CF93DF93CDB7DEB72C970FB6EC
:1014B000F894DEBF0FBECDBF789484B5826084BD42
:1014C00084B5816084BD85B5826085BD85B5816048
:1014D00085BD80916E00816080936E0010928100C6
:1014E0008091810082608093810080918100816081
:1014F0008093810080918000816080938000809142
:10150000B10084608093B1008091B00081608093CD
:10151000B00080917A00846080937A0080917A0094
:10152000826080937A0080917A00816080937A0053
:1015300080917A00806880937A001092C100E091D7
:101540005702F091580282E08083E0915302F091BB
:1015500054021082E0915502F09156028FEC808384
:1015600010925F02E0915B02F0915C0286E0808362
:10157000E0915902F0915A02808180618083E0916C
:101580005902F0915A02808188608083E09159026B
:10159000F0915A02808180688083E0915902F09135
:1015A0005A0280818F7D808387E291E00E9413063A
:1015B00088E6E82EF12C99E8C92E90E0D92E2AE889
:1015C000A22E20E0B22E11E0F0927103E09270039F
:1015D00010922602109225021092D6011092F80164
:1015E0000E946302D092D401C092D301B092D20182
:1015F000A092D10110924003109241031092420335
:101600001092430310924403109245031092460334
:1016100010924703109248031092490310924A0314
:1016200010924B0310926F03109234031092350303
:101630001092360310923703109238031092390338
:1016400010923A0310923B0310923C0310923D0318
:1016500010923E0310923F0310926B0310926C03A2
:1016600010926D0310926E03809170031093D50158
:101670008093F70165E784EE92E00E94D9030E940F
:10168000A20280917003909171031093D501809311
:10169000F7011092D6011092F80161E070E00E940B
:1016A000250484EE92E00E949903082F0E94A20272
:1016B000083659F081E391E00E94130664EF71E06F
:1016C00080E090E00E9409027FCF8BE60E94FB043D
:1016D000887F682F61608BE60E9408048CEE90EC96
:1016E000A9E7BDE38093630390936403A09365032C
:1016F000B09366038BE10E94FB04682F68618BE165
:101700000E94080480E49AEDAFE7B8E38093670392
:1017100090936803A0936903B0936A038CE10E94DD
:10172000FB04682F677E8CE10E9408048BE60E9410
:10173000FB04682F6F7B8BE60E94080484E093E033
:101740000E94210680916F03811104C084E093E020
:101750000E94210620E030E040E450E460914C0318
:1017600070914D0380914E0390914F030E941E1083
:10177000609334037093350380933603909337035B
:1017800020E030E040E450E4609150037091510358
:1017900080915203909153030E941E10609338036E
:1017A0007093390380933A0390933B0320E030E039
:1017B00040E450E4609154037091550380915603C6
:1017C000909157030E941E1060933C0370933D0359
:1017D00080933E0390933F0380E090E0A0E4B0E468
:1017E00080936B0390936C03A0936D03B0936E038F
:1017F00086E691E00E94130600E010E064E073E0EA
:10180000CE0101960E942E0580916F03C090630364
:10181000D0906403E0906503F0906603882309F498
:101820007EC1209140033091410340914203509189
:101830004303609110037091110380911203909102
:1018400013030E94540EA70196010E941E1060937C
:1018500028037093290380932A0390932B032091EC
:1018600044033091450340914603509147036091F2
:1018700014037091150380911603909117030E9431
:10188000540EA70196010E941E1060932C037093C2
:101890002D0380932E0390932F03209148033091C2
:1018A000490340914A0350914B0360911803709192
:1018B000190380911A0390911B030E94540EA701F3
:1018C00096010E941E106093300370933103809341
:1018D00032039093330320E030E0A90160916B0361
:1018E00070916C0380916D0390916E030E94C10E04
:1018F000882309F481C0C0902803D0902903E09088
:101900002A03F0902B0320E030E0A901C701B601C3
:101910000E941910181624F0F7FAF094F7F8F094D2
:10192000A7019601609134037091350380913603CD
:10193000909137030E941910181644F4109228034E
:101940001092290310922A0310922B03C0902C03AB
:10195000D0902D03E0902E03F0902F0320E030E094
:10196000A901C701B6010E941910181624F0F7FA50
:10197000F094F7F8F094A701960160913803709104
:10198000390380913A0390913B030E941910181675
:1019900044F410922C0310922D0310922E031092F7
:1019A0002F03C0903003D0903103E0903203F090C9
:1019B000330320E030E0A901C701B6010E941910ED
:1019C000181624F0F7FAF094F7F8F094A7019601AE
:1019D00060913C0370913D0380913E0390913F03E1
:1019E0000E941910181644F410923003109231031B
:1019F000109232031092330380902C0390902D03A9
:101A0000A0902E03B0902F03C0903003D0903103EC
:101A1000E0903203F090330326EB33EF4DE75CE3C5
:101A2000609128037091290380912A0390912B03E0
:101A30000E941E102091F4023091F5024091F602AE
:101A40005091F7020E94550E6093F4027093F502D4
:101A50008093F6029093F70226EB33EF4DE75CE3B9
:101A6000C501B4010E941E109B01AC016091F802F7
:101A70007091F9028091FA029091FB020E94550E3A
:101A80006093F8027093F9028093FA029093FB023C
:101A900026EB33EF4DE75CE3C701B6010E941E1051
:101AA0009B01AC016091F0027091F1028091F20211
:101AB0009091F3020E94550E6093F0027093F10230
:101AC0008093F2029093F3026FE070E080E090E088
:101AD0000E940902C090F002D090F102E090F20260
:101AE000F090F302A7019601C701B6010E94D11040
:101AF000882309F447C088E791E00E94C20584E288
:101B000091E00E94C2050115110509F477CE0E94EB
:101B1000F500882309F472CE0E9400006FCEA70161
:101B200096016091100370911103809112039091BE
:101B300013030E941E10609328037093290380935F
:101B40002A0390932B03A7019601609114037091CF
:101B5000150380911603909117030E941E10609345
:101B60002C0370932D0380932E0390932F03A701D2
:101B70009601609118037091190380911A03909156
:101B80001B039FCE46015701E894B7F82FEF3FEFB4
:101B90004FE75FE7C501B4010E94D11081110DC06C
:101BA0002FEF3FEF4FE75FE7C501B4010E94C10E81
:101BB00018161CF48CE791E0A0CF2FEF3FEF4FE712
:101BC0005FE4C701B6010E94191018161CF480E8E2
:101BD00091E093CF2FEF3FEF4FE75FECC701B601E6
:101BE0000E94C10E87FDF3CF20E030E0A901C701BC
:101BF000B6010E94C10E87FF09C06DE287E492E042
:101C00000E942B01F7FAF094F7F8F0942AE037EDF0
:101C100043EA5BE3C701B6010E94550E4B015C012C
:101C20000E94380F6B017C010E94670F9B01AC0181
:101C3000C501B4010E94540E4B015C014AE0C7018A
:101C4000B6010E94CF056EE287E492E00E942B016C
:101C500020E030E040E251E4C501B4010E941E10D2
:101C60004B015C010E94380F6B01F12CE12C4AE022
:101C7000C701B6010E94CF05C701B6010E94670FD8
:101C80009B01AC01C501B4010E94540E20E030E07C
:101C900040E251E40E941E100E94380F90E080E064
:101CA0004AE00E94CF052BCF5058BB27AA270E949D
:101CB0006C0E0C94DF0F0E94D10F38F00E94D80FE9
:101CC00020F039F49F3F19F426F40C94CE0F0EF453
:101CD000E095E7FB0C94C80FE92F0E94F00F58F332
:101CE000BA17620773078407950720F079F4A6F501
:101CF0000C9412100EF4E0950B2EBA2FA02D0B01B0
:101D0000B90190010C01CA01A0011124FF27591B40
:101D100099F0593F50F4503E68F11A16F040A22F46
:101D2000232F342F4427585FF3CF469537952795B7
:101D3000A795F0405395C9F77EF41F16BA0B620BB6
:101D4000730B840BBAF09150A1F0FF0FBB1F661FFD
:101D5000771F881FC2F70EC0BA0F621F731F841F40
:101D600048F4879577956795B795F7959E3F08F066
:101D7000B0CF9395880F08F09927EE0F9795879528
:101D800008950E94A40F08F481E008950E94DA0EDD
:101D90000C94DF0F0E94D80F58F00E94D10F40F032
:101DA00029F45F3F29F00C94C80F51110C941310C3
:101DB0000C94CE0F0E94F00F68F39923B1F35523D2
:101DC00091F3951B550BBB27AA276217730784074E
:101DD00038F09F5F5F4F220F331F441FAA1FA9F3E4
:101DE00035D00E2E3AF0E0E832D091505040E695D2
:101DF000001CCAF72BD0FE2F29D0660F771F881F33
:101E0000BB1F261737074807AB07B0E809F0BB0B25
:101E1000802DBF01FF2793585F4F3AF09E3F510539
:101E200078F00C94C80F0C9413105F3FE4F3983EC5
:101E3000D4F3869577956795B795F7959F5FC9F722
:101E4000880F911D9695879597F90895E1E0660FA3
:101E5000771F881FBB1F621773078407BA0720F01C
:101E6000621B730B840BBA0BEE1F88F7E095089585
:101E70000E94F80F88F09F5798F0B92F9927B75113
:101E8000B0F0E1F0660F771F881F991F1AF0BA951E
:101E9000C9F714C0B13091F00E941210B1E008955A
:101EA0000C941210672F782F8827B85F39F0B93F4C
:101EB000CCF3869577956795B395D9F73EF49095D1
:101EC0008095709561957F4F8F4F9F4F0895E8944F
:101ED00009C097FB3EF490958095709561957F4F72
:101EE0008F4F9F4F9923A9F0F92F96E9BB27939520
:101EF000F695879577956795B795F111F8CFFAF430
:101F0000BB0F11F460FF1BC06F5F7F4F8F4F9F4F60
:101F100016C0882311F096E911C0772321F09EE8BE
:101F2000872F762F05C0662371F096E8862F70E024
:101F300060E02AF09A95660F771F881FDAF7880FFE
:101F40009695879597F90895990F0008550FAA0B54
:101F5000E0E8FEEF16161706E807F907C0F01216BC
:101F60001306E407F50798F0621B730B840B950BBF
:101F700039F40A2661F0232B242B252B21F4089514
:101F80000A2609F4A140A6958FEF811D811D0895B1
:101F900097F99F6780E870E060E008959FEF80EC1C
:101FA000089500240A9416161706180609060895BF
:101FB00000240A9412161306140605060895092E25
:101FC0000394000C11F4882352F0BB0F40F4BF2B94
:101FD00011F460FF04C06F5F7F4F8F4F9F4F0895D4
:101FE00057FD9058440F551F59F05F3F71F04795CA
:101FF000880F97FB991F61F09F3F79F087950895AF
:10200000121613061406551FF2CF4695F1DF08C0CD
:10201000161617061806991FF1CF869571056105EA
:1020200008940895E894BB2766277727CB0197F992
:1020300008950E94A40F08F48FEF08950E943110B4
:102040000C94DF0F0E94D10F38F00E94D80F20F0BF
:10205000952311F00C94C80F0C94CE0F11240C94FE
:1020600013100E94F00F70F3959FC1F3950F50E08D
:10207000551F629FF001729FBB27F00DB11D639F3A
:10208000AA27F00DB11DAA1F649F6627B00DA11DE0
:10209000661F829F2227B00DA11D621F739FB00D86
:1020A000A11D621F839FA00D611D221F749F3327F6
:1020B000A00D611D231F849F600D211D822F762F8F
:1020C0006A2F11249F5750409AF0F1F088234AF06C
:1020D000EE0FFF1FBB1F661F771F881F91505040D8
:1020E000A9F79E3F510580F00C94C80F0C94131073
:1020F0005F3FE4F3983ED4F3869577956795B7955F
:10210000F795E7959F5FC1F7FE2B880F911D969578
:10211000879597F9089519F416F40C94CE0F0C9442
:10212000D6100E94F80FB8F39923C9F3B6F39F575E
:10213000550B87FF0E94E4100024A0E640EA9001BE
:1021400080585695979528F4805C660F771F881FF6
:1021500020F026173707480730F4621B730B840BF7
:10216000202931294A2BA69517940794202531253B
:102170004A2758F7660F771F881F20F02617370762
:10218000480730F4620B730B840B200D311D411D89
:10219000A09581F7B901842F9158880F969587955E
:1021A00008950E94A40F880B990B08959F3F31F06A
:1021B000915020F4879577956795B795880F911D75
:1021C0009695879597F9089591505040660F771F1F
:1021D000881FD2F70895A1E21A2EAA1BBB1BFD018E
:1021E0000DC0AA1FBB1FEE1FFF1FA217B307E407F6
:1021F000F50720F0A21BB30BE40BF50B661F771F4E
:10220000881F991F1A9469F760957095809590952D
:102210009B01AC01BD01CF010895EE0FFF1F05909A
:0A222000F491E02D0994F894FFCF2B
:10222A00000000002B018B00B8007801E900C7000C
:10223A00DB0000000000D903AC03220489038200FA
:10224A0099038A030D0A0042656767696E696E67BA
:10225A0000436F756C64206E6F742066696E64202B
:10226A00612076616C6964204D50553630353020D6
:10227A0073656E736F722C20636865636B20776970
:10228A0072696E672100456E6465642043616C69FA
:10229A0062726174696F6E006E616E00696E6600CB
:0422AA006F766600E5
:00000001FF
